{
  "_format": "hh-sol-artifact-1",
  "contractName": "Raffle",
  "sourceName": "contracts/Raffle.sol",
  "abi": [
    {
      "inputs": [
        {
          "internalType": "address",
          "name": "vrfCoordinatorV2",
          "type": "address"
        },
        {
          "internalType": "uint256",
          "name": "entraceFee",
          "type": "uint256"
        },
        {
          "internalType": "bytes32",
          "name": "gasLane",
          "type": "bytes32"
        },
        {
          "internalType": "uint64",
          "name": "subscriptionId",
          "type": "uint64"
        },
        {
          "internalType": "uint32",
          "name": "callbackGasLimit",
          "type": "uint32"
        },
        {
          "internalType": "uint256",
          "name": "interval",
          "type": "uint256"
        }
      ],
      "stateMutability": "nonpayable",
      "type": "constructor"
    },
    {
      "inputs": [
        {
          "internalType": "address",
          "name": "have",
          "type": "address"
        },
        {
          "internalType": "address",
          "name": "want",
          "type": "address"
        }
      ],
      "name": "OnlyCoordinatorCanFulfill",
      "type": "error"
    },
    {
      "inputs": [],
      "name": "Raffle__NotEnoughEthEntered",
      "type": "error"
    },
    {
      "inputs": [],
      "name": "Raffle__NotOpen",
      "type": "error"
    },
    {
      "inputs": [],
      "name": "Raffle__TransferFailed",
      "type": "error"
    },
    {
      "inputs": [
        {
          "internalType": "uint256",
          "name": "currentBalance",
          "type": "uint256"
        },
        {
          "internalType": "uint256",
          "name": "numPlayers",
          "type": "uint256"
        },
        {
          "internalType": "uint256",
          "name": "raffleState",
          "type": "uint256"
        }
      ],
      "name": "Raffle__UpkeepNotNeeded",
      "type": "error"
    },
    {
      "anonymous": false,
      "inputs": [
        {
          "indexed": true,
          "internalType": "address",
          "name": "player",
          "type": "address"
        }
      ],
      "name": "RaffleEnter",
      "type": "event"
    },
    {
      "anonymous": false,
      "inputs": [
        {
          "indexed": true,
          "internalType": "uint256",
          "name": "requestId",
          "type": "uint256"
        }
      ],
      "name": "RequestedRaffleWinner",
      "type": "event"
    },
    {
      "anonymous": false,
      "inputs": [
        {
          "indexed": true,
          "internalType": "address",
          "name": "winner",
          "type": "address"
        }
      ],
      "name": "WinnerPicked",
      "type": "event"
    },
    {
      "inputs": [
        {
          "internalType": "bytes",
          "name": "",
          "type": "bytes"
        }
      ],
      "name": "checkUpkeep",
      "outputs": [
        {
          "internalType": "bool",
          "name": "upkeepNeeded",
          "type": "bool"
        },
        {
          "internalType": "bytes",
          "name": "",
          "type": "bytes"
        }
      ],
      "stateMutability": "nonpayable",
      "type": "function"
    },
    {
      "inputs": [],
      "name": "enterRaffle",
      "outputs": [],
      "stateMutability": "payable",
      "type": "function"
    },
    {
      "inputs": [],
      "name": "getEntranceFee",
      "outputs": [
        {
          "internalType": "uint256",
          "name": "",
          "type": "uint256"
        }
      ],
      "stateMutability": "view",
      "type": "function"
    },
    {
      "inputs": [],
      "name": "getInterval",
      "outputs": [
        {
          "internalType": "uint256",
          "name": "",
          "type": "uint256"
        }
      ],
      "stateMutability": "view",
      "type": "function"
    },
    {
      "inputs": [],
      "name": "getLatestTimestamp",
      "outputs": [
        {
          "internalType": "uint256",
          "name": "",
          "type": "uint256"
        }
      ],
      "stateMutability": "view",
      "type": "function"
    },
    {
      "inputs": [],
      "name": "getNumPlayers",
      "outputs": [
        {
          "internalType": "uint256",
          "name": "",
          "type": "uint256"
        }
      ],
      "stateMutability": "view",
      "type": "function"
    },
    {
      "inputs": [],
      "name": "getNumWords",
      "outputs": [
        {
          "internalType": "uint256",
          "name": "",
          "type": "uint256"
        }
      ],
      "stateMutability": "pure",
      "type": "function"
    },
    {
      "inputs": [
        {
          "internalType": "uint256",
          "name": "index",
          "type": "uint256"
        }
      ],
      "name": "getPlayer",
      "outputs": [
        {
          "internalType": "address",
          "name": "",
          "type": "address"
        }
      ],
      "stateMutability": "view",
      "type": "function"
    },
    {
      "inputs": [],
      "name": "getRaffleState",
      "outputs": [
        {
          "internalType": "enum Raffle.RaffleState",
          "name": "",
          "type": "uint8"
        }
      ],
      "stateMutability": "view",
      "type": "function"
    },
    {
      "inputs": [],
      "name": "getRecentWinner",
      "outputs": [
        {
          "internalType": "address",
          "name": "",
          "type": "address"
        }
      ],
      "stateMutability": "view",
      "type": "function"
    },
    {
      "inputs": [],
      "name": "getRequestConfirmations",
      "outputs": [
        {
          "internalType": "uint256",
          "name": "",
          "type": "uint256"
        }
      ],
      "stateMutability": "pure",
      "type": "function"
    },
    {
      "inputs": [
        {
          "internalType": "bytes",
          "name": "",
          "type": "bytes"
        }
      ],
      "name": "performUpkeep",
      "outputs": [],
      "stateMutability": "nonpayable",
      "type": "function"
    },
    {
      "inputs": [
        {
          "internalType": "uint256",
          "name": "requestId",
          "type": "uint256"
        },
        {
          "internalType": "uint256[]",
          "name": "randomWords",
          "type": "uint256[]"
        }
      ],
      "name": "rawFulfillRandomWords",
      "outputs": [],
      "stateMutability": "nonpayable",
      "type": "function"
    }
  ],
  "bytecode": "0x6101606040523480156200001257600080fd5b50604051620017e5380380620017e5833981810160405281019062000038919062000294565b858073ffffffffffffffffffffffffffffffffffffffff1660808173ffffffffffffffffffffffffffffffffffffffff1681525050508573ffffffffffffffffffffffffffffffffffffffff1660c08173ffffffffffffffffffffffffffffffffffffffff16815250508460a081815250508360e081815250508267ffffffffffffffff166101008167ffffffffffffffff16815250508163ffffffff166101208163ffffffff16815250506000600160146101000a81548160ff021916908360018111156200010d576200010c62000330565b5b0217905550426002819055508061014081815250505050505050506200035f565b600080fd5b600073ffffffffffffffffffffffffffffffffffffffff82169050919050565b6000620001608262000133565b9050919050565b620001728162000153565b81146200017e57600080fd5b50565b600081519050620001928162000167565b92915050565b6000819050919050565b620001ad8162000198565b8114620001b957600080fd5b50565b600081519050620001cd81620001a2565b92915050565b6000819050919050565b620001e881620001d3565b8114620001f457600080fd5b50565b6000815190506200020881620001dd565b92915050565b600067ffffffffffffffff82169050919050565b6200022d816200020e565b81146200023957600080fd5b50565b6000815190506200024d8162000222565b92915050565b600063ffffffff82169050919050565b6200026e8162000253565b81146200027a57600080fd5b50565b6000815190506200028e8162000263565b92915050565b60008060008060008060c08789031215620002b457620002b36200012e565b5b6000620002c489828a0162000181565b9650506020620002d789828a01620001bc565b9550506040620002ea89828a01620001f7565b9450506060620002fd89828a016200023c565b93505060806200031089828a016200027d565b92505060a06200032389828a01620001bc565b9150509295509295509295565b7f4e487b7100000000000000000000000000000000000000000000000000000000600052602160045260246000fd5b60805160a05160c05160e051610100516101205161014051611416620003cf600039600081816107f801526108660152600061069b01526000610678015260006106570152600061061b0152600081816102fa01526103f7015260008181610337015261038b01526114166000f3fe6080604052600436106100c25760003560e01c806353a2c19a1161007f5780636e04ff0d116100595780636e04ff0d1461022557806391ad27b414610263578063e55ae4e81461028e578063f43b52cb146102cb576100c2565b806353a2c19a146101a457806355c9e926146101cf5780635f1b0fd8146101fa576100c2565b806309bc33a7146100c7578063115cbaf5146100f25780631fe543e31461011d5780632cfcc539146101465780634585e33b14610150578063473f1ddc14610179575b600080fd5b3480156100d357600080fd5b506100dc6102f6565b6040516100e99190610b97565b60405180910390f35b3480156100fe57600080fd5b5061010761031e565b6040516101149190610c29565b60405180910390f35b34801561012957600080fd5b50610144600480360381019061013f9190610ddd565b610335565b005b61014e6103f5565b005b34801561015c57600080fd5b5061017760048036038101906101729190610e94565b610564565b005b34801561018557600080fd5b5061018e610763565b60405161019b9190610f22565b60405180910390f35b3480156101b057600080fd5b506101b961078d565b6040516101c69190610b97565b60405180910390f35b3480156101db57600080fd5b506101e461079c565b6040516101f19190610b97565b60405180910390f35b34801561020657600080fd5b5061020f6107a8565b60405161021c9190610b97565b60405180910390f35b34801561023157600080fd5b5061024c60048036038101906102479190610ff2565b6107b5565b60405161025a9291906110de565b60405180910390f35b34801561026f57600080fd5b50610278610862565b6040516102859190610b97565b60405180910390f35b34801561029a57600080fd5b506102b560048036038101906102b0919061110e565b61088a565b6040516102c29190610f22565b60405180910390f35b3480156102d757600080fd5b506102e06108d1565b6040516102ed9190610b97565b60405180910390f35b60007f0000000000000000000000000000000000000000000000000000000000000000905090565b6000600160149054906101000a900460ff16905090565b7f000000000000000000000000000000000000000000000000000000000000000073ffffffffffffffffffffffffffffffffffffffff163373ffffffffffffffffffffffffffffffffffffffff16146103e757337f00000000000000000000000000000000000000000000000000000000000000006040517f1cf993f40000000000000000000000000000000000000000000000000000000081526004016103de92919061113b565b60405180910390fd5b6103f182826108db565b5050565b7f000000000000000000000000000000000000000000000000000000000000000034101561044f576040517f066d781f00000000000000000000000000000000000000000000000000000000815260040160405180910390fd5b6000600181111561046357610462610bb2565b5b600160149054906101000a900460ff16600181111561048557610484610bb2565b5b146104bc576040517f1425571c00000000000000000000000000000000000000000000000000000000815260040160405180910390fd5b6000339080600181540180825580915050600190039060005260206000200160009091909190916101000a81548173ffffffffffffffffffffffffffffffffffffffff021916908373ffffffffffffffffffffffffffffffffffffffff1602179055503373ffffffffffffffffffffffffffffffffffffffff167f0805e1d667bddb8a95f0f09880cf94f403fb596ce79928d9f29b74203ba284d460405160405180910390a2565b600061057e604051806020016040528060008152506107b5565b509050806105ed5747600080549050600160149054906101000a900460ff1660018111156105af576105ae610bb2565b5b6040517f584327aa0000000000000000000000000000000000000000000000000000000081526004016105e493929190611164565b60405180910390fd5b60018060146101000a81548160ff0219169083600181111561061257610611610bb2565b5b021790555060007f000000000000000000000000000000000000000000000000000000000000000073ffffffffffffffffffffffffffffffffffffffff16635d3b1d307f00000000000000000000000000000000000000000000000000000000000000007f000000000000000000000000000000000000000000000000000000000000000060037f000000000000000000000000000000000000000000000000000000000000000060016040518663ffffffff1660e01b81526004016106dc959493929190611213565b602060405180830381600087803b1580156106f657600080fd5b505af115801561070a573d6000803e3d6000fd5b505050506040513d601f19601f8201168201806040525081019061072e919061127b565b9050807fcd6e45c8998311cab7e9d4385596cac867e20a0587194b954fa3a731c93ce78b60405160405180910390a250505050565b6000600160009054906101000a900473ffffffffffffffffffffffffffffffffffffffff16905090565b6000600163ffffffff16905090565b60008080549050905090565b6000600361ffff16905090565b600060606000600160149054906101000a900460ff1660018111156107dd576107dc610bb2565b5b600060018111156107f1576107f0610bb2565b5b14905060007f00000000000000000000000000000000000000000000000000000000000000006002544261082591906112d7565b119050600080600080549050119050600080471190508380156108455750825b801561084e5750805b80156108575750815b955050505050915091565b60007f0000000000000000000000000000000000000000000000000000000000000000905090565b600080828154811061089f5761089e61130b565b5b9060005260206000200160009054906101000a900473ffffffffffffffffffffffffffffffffffffffff169050919050565b6000600254905090565b60008080549050826000815181106108f6576108f561130b565b5b60200260200101516109089190611369565b905060006109158261088a565b905080600160006101000a81548173ffffffffffffffffffffffffffffffffffffffff021916908373ffffffffffffffffffffffffffffffffffffffff1602179055506000600160146101000a81548160ff0219169083600181111561097e5761097d610bb2565b5b0217905550600067ffffffffffffffff81111561099e5761099d610c9a565b5b6040519080825280602002602001820160405280156109cc5781602001602082028036833780820191505090505b50600090805190602001906109e2929190610ad7565b504260028190555060008173ffffffffffffffffffffffffffffffffffffffff1647604051610a10906113cb565b60006040518083038185875af1925050503d8060008114610a4d576040519150601f19603f3d011682016040523d82523d6000602084013e610a52565b606091505b5050905080610a8d576040517fa1d04b3900000000000000000000000000000000000000000000000000000000815260040160405180910390fd5b8173ffffffffffffffffffffffffffffffffffffffff167f5b690ec4a06fe979403046eaeea5b3ce38524683c3001f662c8b5a829632f7df60405160405180910390a25050505050565b828054828255906000526020600020908101928215610b50579160200282015b82811115610b4f5782518260006101000a81548173ffffffffffffffffffffffffffffffffffffffff021916908373ffffffffffffffffffffffffffffffffffffffff16021790555091602001919060010190610af7565b5b509050610b5d9190610b61565b5090565b5b80821115610b7a576000816000905550600101610b62565b5090565b6000819050919050565b610b9181610b7e565b82525050565b6000602082019050610bac6000830184610b88565b92915050565b7f4e487b7100000000000000000000000000000000000000000000000000000000600052602160045260246000fd5b60028110610bf257610bf1610bb2565b5b50565b6000819050610c0382610be1565b919050565b6000610c1382610bf5565b9050919050565b610c2381610c08565b82525050565b6000602082019050610c3e6000830184610c1a565b92915050565b6000604051905090565b600080fd5b600080fd5b610c6181610b7e565b8114610c6c57600080fd5b50565b600081359050610c7e81610c58565b92915050565b600080fd5b6000601f19601f8301169050919050565b7f4e487b7100000000000000000000000000000000000000000000000000000000600052604160045260246000fd5b610cd282610c89565b810181811067ffffffffffffffff82111715610cf157610cf0610c9a565b5b80604052505050565b6000610d04610c44565b9050610d108282610cc9565b919050565b600067ffffffffffffffff821115610d3057610d2f610c9a565b5b602082029050602081019050919050565b600080fd5b6000610d59610d5484610d15565b610cfa565b90508083825260208201905060208402830185811115610d7c57610d7b610d41565b5b835b81811015610da55780610d918882610c6f565b845260208401935050602081019050610d7e565b5050509392505050565b600082601f830112610dc457610dc3610c84565b5b8135610dd4848260208601610d46565b91505092915050565b60008060408385031215610df457610df3610c4e565b5b6000610e0285828601610c6f565b925050602083013567ffffffffffffffff811115610e2357610e22610c53565b5b610e2f85828601610daf565b9150509250929050565b600080fd5b60008083601f840112610e5457610e53610c84565b5b8235905067ffffffffffffffff811115610e7157610e70610e39565b5b602083019150836001820283011115610e8d57610e8c610d41565b5b9250929050565b60008060208385031215610eab57610eaa610c4e565b5b600083013567ffffffffffffffff811115610ec957610ec8610c53565b5b610ed585828601610e3e565b92509250509250929050565b600073ffffffffffffffffffffffffffffffffffffffff82169050919050565b6000610f0c82610ee1565b9050919050565b610f1c81610f01565b82525050565b6000602082019050610f376000830184610f13565b92915050565b600080fd5b600067ffffffffffffffff821115610f5d57610f5c610c9a565b5b610f6682610c89565b9050602081019050919050565b82818337600083830152505050565b6000610f95610f9084610f42565b610cfa565b905082815260208101848484011115610fb157610fb0610f3d565b5b610fbc848285610f73565b509392505050565b600082601f830112610fd957610fd8610c84565b5b8135610fe9848260208601610f82565b91505092915050565b60006020828403121561100857611007610c4e565b5b600082013567ffffffffffffffff81111561102657611025610c53565b5b61103284828501610fc4565b91505092915050565b60008115159050919050565b6110508161103b565b82525050565b600081519050919050565b600082825260208201905092915050565b60005b83811015611090578082015181840152602081019050611075565b8381111561109f576000848401525b50505050565b60006110b082611056565b6110ba8185611061565b93506110ca818560208601611072565b6110d381610c89565b840191505092915050565b60006040820190506110f36000830185611047565b818103602083015261110581846110a5565b90509392505050565b60006020828403121561112457611123610c4e565b5b600061113284828501610c6f565b91505092915050565b60006040820190506111506000830185610f13565b61115d6020830184610f13565b9392505050565b60006060820190506111796000830186610b88565b6111866020830185610b88565b6111936040830184610b88565b949350505050565b6000819050919050565b6111ae8161119b565b82525050565b600067ffffffffffffffff82169050919050565b6111d1816111b4565b82525050565b600061ffff82169050919050565b6111ee816111d7565b82525050565b600063ffffffff82169050919050565b61120d816111f4565b82525050565b600060a08201905061122860008301886111a5565b61123560208301876111c8565b61124260408301866111e5565b61124f6060830185611204565b61125c6080830184611204565b9695505050505050565b60008151905061127581610c58565b92915050565b60006020828403121561129157611290610c4e565b5b600061129f84828501611266565b91505092915050565b7f4e487b7100000000000000000000000000000000000000000000000000000000600052601160045260246000fd5b60006112e282610b7e565b91506112ed83610b7e565b925082821015611300576112ff6112a8565b5b828203905092915050565b7f4e487b7100000000000000000000000000000000000000000000000000000000600052603260045260246000fd5b7f4e487b7100000000000000000000000000000000000000000000000000000000600052601260045260246000fd5b600061137482610b7e565b915061137f83610b7e565b92508261138f5761138e61133a565b5b828206905092915050565b600081905092915050565b50565b60006113b560008361139a565b91506113c0826113a5565b600082019050919050565b60006113d6826113a8565b915081905091905056fea2646970667358221220cc81ce184f6a75d75efdf0ed4df6cc7f711b813db8b8d9bbcd98c267ac82188864736f6c63430008090033",
  "linkReferences": {},
  "deployedLinkReferences": {}
}